{
  "contractName": "Relay",
  "abi": [
    {
      "anonymous": false,
      "inputs": [
        {
          "indexed": false,
          "name": "indexes",
          "type": "uint256[]"
        }
      ],
      "name": "log",
      "type": "event"
    },
    {
      "constant": false,
      "inputs": [
        {
          "name": "blockHash",
          "type": "bytes32"
        },
        {
          "name": "prevBlockHash",
          "type": "uint256"
        },
        {
          "name": "stateRoot",
          "type": "bytes32"
        },
        {
          "name": "txRoot",
          "type": "bytes32"
        }
      ],
      "name": "submitBlock",
      "outputs": [],
      "payable": false,
      "stateMutability": "nonpayable",
      "type": "function"
    },
    {
      "constant": true,
      "inputs": [
        {
          "name": "blockHash",
          "type": "bytes32"
        },
        {
          "name": "rlpStack",
          "type": "bytes"
        },
        {
          "name": "indexes",
          "type": "uint256[]"
        },
        {
          "name": "transactionPrefix",
          "type": "bytes"
        },
        {
          "name": "rlpTransaction",
          "type": "bytes"
        }
      ],
      "name": "checkTxProof",
      "outputs": [
        {
          "name": "",
          "type": "bool"
        }
      ],
      "payable": false,
      "stateMutability": "view",
      "type": "function"
    },
    {
      "constant": true,
      "inputs": [
        {
          "name": "rootHash",
          "type": "bytes32"
        },
        {
          "name": "rlpStack",
          "type": "bytes"
        },
        {
          "name": "indexes",
          "type": "uint256[]"
        },
        {
          "name": "valuePrefix",
          "type": "bytes"
        },
        {
          "name": "rlpValue",
          "type": "bytes"
        }
      ],
      "name": "checkProof",
      "outputs": [
        {
          "name": "",
          "type": "bool"
        }
      ],
      "payable": false,
      "stateMutability": "view",
      "type": "function"
    },
    {
      "constant": true,
      "inputs": [
        {
          "name": "blockHash",
          "type": "bytes32"
        }
      ],
      "name": "getStateRoot",
      "outputs": [
        {
          "name": "",
          "type": "bytes32"
        }
      ],
      "payable": false,
      "stateMutability": "view",
      "type": "function"
    },
    {
      "constant": true,
      "inputs": [
        {
          "name": "blockHash",
          "type": "bytes32"
        }
      ],
      "name": "getTxRoot",
      "outputs": [
        {
          "name": "",
          "type": "bytes32"
        }
      ],
      "payable": false,
      "stateMutability": "view",
      "type": "function"
    },
    {
      "constant": true,
      "inputs": [
        {
          "name": "rlpTransaction",
          "type": "bytes"
        }
      ],
      "name": "getTransactionDetails",
      "outputs": [
        {
          "name": "",
          "type": "uint256"
        }
      ],
      "payable": false,
      "stateMutability": "view",
      "type": "function"
    }
  ],
  "bytecode": "0x6060604052341561000f57600080fd5b61100b8061001e6000396000f300606060405260043610610078576000357c0100000000000000000000000000000000000000000000000000000000900463ffffffff1680632cb583781461007d5780635f1d804f146100c0578063b10ddb8714610208578063b44996c414610252578063d6bacb0e1461039a578063e62e3c07146103dd575b600080fd5b341561008857600080fd5b6100a260048080356000191690602001909190505061044e565b60405180826000191660001916815260200191505060405180910390f35b34156100cb57600080fd5b6101ee60048080356000191690602001909190803590602001908201803590602001908080601f016020809104026020016040519081016040528093929190818152602001838380828437820191505050505050919080359060200190820180359060200190808060200260200160405190810160405280939291908181526020018383602002808284378201915050505050509190803590602001908201803590602001908080601f0160208091040260200160405190810160405280939291908181526020018383808284378201915050505050509190803590602001908201803590602001908080601f01602080910402602001604051908101604052809392919081815260200183838082843782019150505050505091905050610475565b604051808215151515815260200191505060405180910390f35b341561021357600080fd5b61025060048080356000191690602001909190803590602001909190803560001916906020019091908035600019169060200190919050506104c2565b005b341561025d57600080fd5b61038060048080356000191690602001909190803590602001908201803590602001908080601f016020809104026020016040519081016040528093929190818152602001838380828437820191505050505050919080359060200190820180359060200190808060200260200160405190810160405280939291908181526020018383602002808284378201915050505050509190803590602001908201803590602001908080601f0160208091040260200160405190810160405280939291908181526020018383808284378201915050505050509190803590602001908201803590602001908080601f0160208091040260200160405190810160405280939291908181526020018383808284378201915050505050509190505061054b565b604051808215151515815260200191505060405180910390f35b34156103a557600080fd5b6103bf600480803560001916906020019091905050610950565b60405180826000191660001916815260200191505060405180910390f35b34156103e857600080fd5b610438600480803590602001908201803590602001908080601f01602080910402602001604051908101604052809392919081815260200183838082843782019150505050505091905050610977565b6040518082815260200191505060405180910390f35b60008060008360001916600019168152602001908152602001600020600101549050919050565b60008060008088600019166000191681526020019081526020016000206002015490506104a5818787878761054b565b156104b357600191506104b8565b600091505b5095945050505050565b6104ca610f3a565b83816000018181525050828160200190600019169081600019168152505081816040019060001916908160001916815250508060008087600019166000191681526020019081526020016000206000820151816000015560208201518160010190600019169055604082015181600201906000191690559050505050505050565b6000610555610f62565b600061055f610f76565b610567610f62565b6000610571610f8a565b61058261057d8c6109bd565b610a18565b95508b9450600091505b855182101561094057600186510382141561083a577f72d6927dc9131d76f878fcd25011a393e7038415c1bfe13a05a81d043ef89a0d8a6040518080602001828103825283818151815260200191508051906020019060200280838360005b838110156106065780820151818401526020810190506105eb565b505050509050019250505060405180910390a1610639868381518110151561062a57fe5b90602001906020020151610ae5565b9350836040518082805190602001908083835b602083101515610671578051825260208201915060208101905060208303925061064c565b6001836020036101000a03801982511681845116808217855250505050505090500191505060405180910390206000191685600019161415156106b75760009650610941565b6106d786838151811015156106c857fe5b90602001906020020151610a18565b92508260018451038151811015156106eb57fe5b90602001906020020151905061070081610ae5565b6040518082805190602001908083835b6020831015156107355780518252602082019150602081019050602083039250610710565b6001836020036101000a03801982511681845116808217855250505050505090500191505060405180910390206000191689896040518083805190602001908083835b60208310151561079d5780518252602082019150602081019050602083039250610778565b6001836020036101000a03801982511681845116808217855250505050505090500182805190602001908083835b6020831015156107f057805182526020820191506020810190506020830392506107cb565b6001836020036101000a0380198251168184511680821785525050505050509050019250505060405180910390206000191614156108315760019650610941565b60009650610941565b61085a868381518110151561084b57fe5b90602001906020020151610ae5565b9350836040518082805190602001908083835b602083101515610892578051825260208201915060208101905060208303925061086d565b6001836020036101000a03801982511681845116808217855250505050505090500191505060405180910390206000191685600019161415156108d85760009650610941565b6108f886838151811015156108e957fe5b90602001906020020151610a18565b9250610931838b8481518110151561090c57fe5b9060200190602002015181518110151561092257fe5b90602001906020020151610b3f565b9450818060010192505061058c565b5b50505050505095945050505050565b60008060008360001916600019168152602001908152602001600020600201549050919050565b6000610981610f62565b61099261098d846109bd565b610a18565b90506109b58160028151811015156109a657fe5b90602001906020020151610b54565b915050919050565b6109c5610f8a565b6000808351915060008214156109f35760408051908101604052806000815260200160008152509250610a11565b60208401905060408051908101604052808281526020018381525092505b5050919050565b610a20610f62565b6000610a2a610fa4565b6000610a3585610ba7565b1515610a4057600080fd5b610a4985610bd9565b925082604051805910610a595750595b908082528060200260200182016040528015610a8f57816020015b610a7c610fc5565b815260200190600190039081610a745790505b509350610a9b85610c53565b91505b610aa782610c9b565b15610add57610ab582610cc5565b8482815181101515610ac357fe5b906020019060200201819052508080600101915050610a9e565b505050919050565b610aed610f76565b6000826020015190506000811415610b0457610b39565b80604051805910610b125750595b9080825280601f01601f19166020018201604052509150610b3883600001518383610d21565b5b50919050565b6000610b4a82610b54565b6001029050919050565b6000806000610b6284610d62565b1515610b6d57600080fd5b610b7684610d93565b915091506020811180610b895750600081145b15610b9357600080fd5b806020036101000a82510492505050919050565b600080600083602001511415610bc05760009150610bd3565b8260000151905060c0815160001a101591505b50919050565b600080600080600080610beb87610ba7565b1515610bfa5760009550610c49565b86600001519350835160001a9450610c1187610e14565b840192506001876020015185010391505b8183111515610c4557610c3483610ea0565b830192508080600101915050610c22565b8095505b5050505050919050565b610c5b610fa4565b6000610c6683610ba7565b1515610c7157600080fd5b610c7a83610e14565b83600001510190508282600001819052508082602001818152505050919050565b6000610ca5610f8a565b826000015190508060200151816000015101836020015110915050919050565b610ccd610f8a565b600080610cd984610c9b565b15610d155783602001519150610cee82610ea0565b90508183600001818152505080836020018181525050808201846020018181525050610d1a565b600080fd5b5050919050565b60006020601f83010484602085015b828414610d4f5760208402808301518183015260018501945050610d30565b6000865160200187015250505050505050565b600080600083602001511415610d7b5760009150610d8d565b8260000151905060c0815160001a1091505b50919050565b6000806000806000610da486610d62565b1515610daf57600080fd5b85600001519150815160001a92506080831015610dd25781945060019350610e0c565b60b8831015610df05760018660200151039350600182019450610e0b565b60b78303905080600187602001510303935060018183010194505b5b505050915091565b60008060008084602001511415610e2e5760009250610e99565b83600001519050805160001a91506080821015610e4e5760009250610e99565b60b8821080610e6a575060c08210158015610e69575060f882105b5b15610e785760019250610e99565b60c0821015610e8f57600160b78303019250610e99565b600160f783030192505b5050919050565b600080825160001a90506080811015610ebc5760019150610f34565b60b8811015610ed357600160808203019150610f33565b60c0811015610efd5760b78103806020036101000a60018501510480820160010193505050610f32565b60f8811015610f1457600160c08203019150610f31565b60f78103806020036101000a600185015104808201600101935050505b5b5b5b50919050565b6060604051908101604052806000815260200160008019168152602001600080191681525090565b602060405190810160405280600081525090565b602060405190810160405280600081525090565b604080519081016040528060008152602001600081525090565b606060405190810160405280610fb8610fc5565b8152602001600081525090565b6040805190810160405280600081526020016000815250905600a165627a7a72305820712384273b6852a397e0d8922fab14b460130b1d73a5cbd68a9e6017a4b357280029",
  "source": "pragma solidity ^0.4.17;\nimport \"./RLP.sol\";\ncontract Relay {\n\nusing RLP for RLP.RLPItem;\nusing RLP for RLP.Iterator;\nusing RLP for bytes;\n\nmapping (bytes32 => BlockHeader) blocks;\nmapping (bytes32 => Transaction) transactions;\n\nevent log(uint[] indexes);\n\nstruct BlockHeader {\n  uint      prevBlockHash;// 0\n  bytes32   stateRoot;    // 3\n  bytes32   txRoot;       // 4\n}\n\nstruct Transaction {\n  //data\n}\n\n\nfunction submitBlock(bytes32 blockHash, uint prevBlockHash, bytes32 stateRoot, bytes32 txRoot){\n  BlockHeader memory header;\n  header.prevBlockHash=prevBlockHash;\n  header.stateRoot = bytes32(stateRoot);\n  header.txRoot = bytes32(txRoot);\n  //log(\"txRoot\",txRoot);\n  blocks[blockHash] = header;\n\n\n  //TO DO: check validity\n}\n\nfunction checkTxProof(bytes32 blockHash, bytes rlpStack, uint[] indexes, bytes transactionPrefix, bytes rlpTransaction) constant returns (bool) {\n  bytes32 txRoot = blocks[blockHash].txRoot;\n  if (checkProof(txRoot, rlpStack, indexes, transactionPrefix, rlpTransaction)) {\n    return true;\n  } else {\n    return false;\n  }\n}\n\n\nfunction checkProof(bytes32 rootHash, bytes rlpStack, uint[] indexes, bytes valuePrefix, bytes rlpValue) constant returns (bool) {\n RLP.RLPItem[] memory stack = rlpStack.toRLPItem().toList();\n bytes32 hashOfNode = rootHash;\n bytes memory currNode;\n RLP.RLPItem[] memory currNodeList;\n\n for (uint i = 0; i < stack.length; i++) {\n   if (i == stack.length - 1) {\n     log(indexes);\n     currNode = stack[i].toBytes();\n     if (hashOfNode != sha3(currNode)) {return false;}\n     currNodeList = stack[i].toList();\n     RLP.RLPItem memory value = currNodeList[currNodeList.length - 1];\n     if (sha3(valuePrefix, rlpValue) == sha3(value.toBytes())) {\n       return true;\n     } else {\n       return false;\n     }\n   }\n   currNode = stack[i].toBytes();\n   if (hashOfNode != sha3(currNode)) {return false;}\n   currNodeList = stack[i].toList();\n   hashOfNode = currNodeList[indexes[i]].toBytes32();\n }\n}\n\nfunction getStateRoot(bytes32 blockHash) constant returns (bytes32) {\n  return blocks[blockHash].stateRoot;\n}\n\nfunction getTxRoot(bytes32 blockHash) constant returns (bytes32) {\n  return blocks[blockHash].txRoot;\n}\n\n\nfunction getTransactionDetails(bytes rlpTransaction) constant returns (uint) {\n  RLP.RLPItem[] memory list = rlpTransaction.toRLPItem().toList();\n  return list[2].toUint();\n\n}\n\n}\n",
  "sourcePath": "D:\\MyProject\\Dapp\\VeRealy\\contracts\\Relay.sol",
  "compiler": {
    "name": "solc",
    "version": "0.4.19+commit.c4cbbb05.Emscripten.clang"
  },
  "schemaVersion": "2.0.0",
  "updatedAt": "2018-04-18T08:52:39.363Z"
}